:100000000C9446000C9465000C9465000C946500FB
:100010000C9465000C9465000C9465000C946500CC
:100020000C9465000C9465000C9465000C946500BC
:100030000C9465000C9465000C9465000C946500AC
:100040000C9465000C9465000C9465000C9465009C
:100050000C9465000C9465000C9435010C946500BB
:100060000C9465000C9465000C9465000C9465007C
:100070000C94FA000C9465000C9465000C946500D7
:100080000C9465000C9465000C94650011241FBE4F
:10009000CFEFD0E4DEBFCDBF11E0A0E0B1E0E2EEF3
:1000A000F2E000E00BBF02C007900D92A030B10754
:1000B000D9F712E0A0E0B1E001C01D92AA30B1076B
:1000C000E1F70E9467000C946F010C9400001092FD
:1000D000C5008AE28093C40082E08093C00088E17A
:1000E0008093C10086E08093C20098E68091C000B2
:1000F00085FFFCCF9093C600F9CF1092C5002AE28D
:100100002093C40092E09093C000A1ECB0E088E49A
:100110008C93E2ECF0E086E080831092CD00209397
:10012000CC009093C80090E99C93808388E891E08C
:100130009093050180930401909309028093080233
:100140001092030186E091E09093020180930101F7
:100150009093870180938601109200010895809109
:1001600000018823E1F3F894E0918601F091870182
:10017000819190910001915090930001F09387013B
:10018000E093860191E0E638F90730F026E031E0AF
:10019000309387012093860178940895809100011F
:1001A00008959091030197FDFCCFF894E09104012C
:1001B000F09105018083809103018F5F809303019B
:1001C000809104019091050101969093050180931F
:1001D000040122E08830920730F088E891E09093A3
:1001E0000501809304018091C10080628093C10069
:1001F000789408951F920F920FB60F920BB60F923C
:1002000011242F938F939F93EF93FF939091CE00A0
:10021000809100018138E8F4E0910101F091020140
:100220009083809100018F5F809300018091010194
:10023000909102010196909302018093010121E0C7
:100240008638920730F086E091E090930201809327
:100250000101FF91EF919F918F912F910F900BBE14
:100260000F900FBE0F901F9018951F920F920FB610
:100270000F920BB60F9211248F939F93EF93FF93DE
:1002800080910301882329F1E0910802F09109028D
:1002900081918093C6008091030181508093030176
:1002A000F0930902E093080282E0E830F80730F0AA
:1002B00088E891E09093090280930802FF91EF9102
:1002C0009F918F910F900BBE0F900FBE0F901F90BC
:1002D00018958091C1008F7D8093C100EFCFF89475
:0202E000FFCF4E
:00000001FF
